{
  "_format": "hh-sol-artifact-1",
  "contractName": "BacalhauFRC721",
  "sourceName": "contracts/BacalhauFRC721.sol",
  "abi": [
    {
      "inputs": [],
      "stateMutability": "nonpayable",
      "type": "constructor"
    },
    {
      "anonymous": false,
      "inputs": [
        {
          "indexed": true,
          "internalType": "address",
          "name": "owner",
          "type": "address"
        },
        {
          "indexed": true,
          "internalType": "address",
          "name": "approved",
          "type": "address"
        },
        {
          "indexed": true,
          "internalType": "uint256",
          "name": "tokenId",
          "type": "uint256"
        }
      ],
      "name": "Approval",
      "type": "event"
    },
    {
      "anonymous": false,
      "inputs": [
        {
          "indexed": true,
          "internalType": "address",
          "name": "owner",
          "type": "address"
        },
        {
          "indexed": true,
          "internalType": "address",
          "name": "operator",
          "type": "address"
        },
        {
          "indexed": false,
          "internalType": "bool",
          "name": "approved",
          "type": "bool"
        }
      ],
      "name": "ApprovalForAll",
      "type": "event"
    },
    {
      "anonymous": false,
      "inputs": [
        {
          "indexed": true,
          "internalType": "address",
          "name": "sender",
          "type": "address"
        },
        {
          "indexed": true,
          "internalType": "uint256",
          "name": "tokenId",
          "type": "uint256"
        },
        {
          "indexed": false,
          "internalType": "string",
          "name": "tokenURI",
          "type": "string"
        }
      ],
      "name": "NewBacalhauFRC721NFTMinted",
      "type": "event"
    },
    {
      "anonymous": false,
      "inputs": [
        {
          "indexed": true,
          "internalType": "address",
          "name": "from",
          "type": "address"
        },
        {
          "indexed": true,
          "internalType": "address",
          "name": "to",
          "type": "address"
        },
        {
          "indexed": true,
          "internalType": "uint256",
          "name": "tokenId",
          "type": "uint256"
        }
      ],
      "name": "Transfer",
      "type": "event"
    },
    {
      "inputs": [
        {
          "internalType": "address",
          "name": "to",
          "type": "address"
        },
        {
          "internalType": "uint256",
          "name": "tokenId",
          "type": "uint256"
        }
      ],
      "name": "approve",
      "outputs": [],
      "stateMutability": "nonpayable",
      "type": "function"
    },
    {
      "inputs": [
        {
          "internalType": "address",
          "name": "owner",
          "type": "address"
        }
      ],
      "name": "balanceOf",
      "outputs": [
        {
          "internalType": "uint256",
          "name": "",
          "type": "uint256"
        }
      ],
      "stateMutability": "view",
      "type": "function"
    },
    {
      "inputs": [
        {
          "internalType": "uint256",
          "name": "tokenId",
          "type": "uint256"
        }
      ],
      "name": "getApproved",
      "outputs": [
        {
          "internalType": "address",
          "name": "",
          "type": "address"
        }
      ],
      "stateMutability": "view",
      "type": "function"
    },
    {
      "inputs": [],
      "name": "getNFTCollection",
      "outputs": [
        {
          "components": [
            {
              "internalType": "address",
              "name": "owner",
              "type": "address"
            },
            {
              "internalType": "string",
              "name": "tokenURI",
              "type": "string"
            },
            {
              "internalType": "uint256",
              "name": "tokenId",
              "type": "uint256"
            }
          ],
          "internalType": "struct BacalhauFRC721.bacalhauFRC721NFT[]",
          "name": "",
          "type": "tuple[]"
        }
      ],
      "stateMutability": "view",
      "type": "function"
    },
    {
      "inputs": [
        {
          "internalType": "address",
          "name": "owner",
          "type": "address"
        }
      ],
      "name": "getNFTCollectionByOwner",
      "outputs": [
        {
          "components": [
            {
              "internalType": "address",
              "name": "owner",
              "type": "address"
            },
            {
              "internalType": "string",
              "name": "tokenURI",
              "type": "string"
            },
            {
              "internalType": "uint256",
              "name": "tokenId",
              "type": "uint256"
            }
          ],
          "internalType": "struct BacalhauFRC721.bacalhauFRC721NFT[]",
          "name": "",
          "type": "tuple[]"
        }
      ],
      "stateMutability": "view",
      "type": "function"
    },
    {
      "inputs": [
        {
          "internalType": "address",
          "name": "owner",
          "type": "address"
        },
        {
          "internalType": "address",
          "name": "operator",
          "type": "address"
        }
      ],
      "name": "isApprovedForAll",
      "outputs": [
        {
          "internalType": "bool",
          "name": "",
          "type": "bool"
        }
      ],
      "stateMutability": "view",
      "type": "function"
    },
    {
      "inputs": [
        {
          "internalType": "address",
          "name": "owner",
          "type": "address"
        },
        {
          "internalType": "string",
          "name": "ipfsURI",
          "type": "string"
        }
      ],
      "name": "mintBacalhauNFT",
      "outputs": [
        {
          "internalType": "uint256",
          "name": "",
          "type": "uint256"
        }
      ],
      "stateMutability": "nonpayable",
      "type": "function"
    },
    {
      "inputs": [
        {
          "internalType": "address",
          "name": "owner",
          "type": "address"
        },
        {
          "internalType": "string[]",
          "name": "ipfsMetadata",
          "type": "string[]"
        }
      ],
      "name": "mintMultipleBacalhauNFTs",
      "outputs": [
        {
          "internalType": "uint256[]",
          "name": "",
          "type": "uint256[]"
        }
      ],
      "stateMutability": "nonpayable",
      "type": "function"
    },
    {
      "inputs": [],
      "name": "name",
      "outputs": [
        {
          "internalType": "string",
          "name": "",
          "type": "string"
        }
      ],
      "stateMutability": "view",
      "type": "function"
    },
    {
      "inputs": [
        {
          "internalType": "uint256",
          "name": "",
          "type": "uint256"
        }
      ],
      "name": "nftCollection",
      "outputs": [
        {
          "internalType": "address",
          "name": "owner",
          "type": "address"
        },
        {
          "internalType": "string",
          "name": "tokenURI",
          "type": "string"
        },
        {
          "internalType": "uint256",
          "name": "tokenId",
          "type": "uint256"
        }
      ],
      "stateMutability": "view",
      "type": "function"
    },
    {
      "inputs": [
        {
          "internalType": "address",
          "name": "",
          "type": "address"
        },
        {
          "internalType": "uint256",
          "name": "",
          "type": "uint256"
        }
      ],
      "name": "nftCollectionByOwner",
      "outputs": [
        {
          "internalType": "address",
          "name": "owner",
          "type": "address"
        },
        {
          "internalType": "string",
          "name": "tokenURI",
          "type": "string"
        },
        {
          "internalType": "uint256",
          "name": "tokenId",
          "type": "uint256"
        }
      ],
      "stateMutability": "view",
      "type": "function"
    },
    {
      "inputs": [
        {
          "internalType": "uint256",
          "name": "tokenId",
          "type": "uint256"
        }
      ],
      "name": "ownerOf",
      "outputs": [
        {
          "internalType": "address",
          "name": "",
          "type": "address"
        }
      ],
      "stateMutability": "view",
      "type": "function"
    },
    {
      "inputs": [
        {
          "internalType": "address",
          "name": "from",
          "type": "address"
        },
        {
          "internalType": "address",
          "name": "to",
          "type": "address"
        },
        {
          "internalType": "uint256",
          "name": "tokenId",
          "type": "uint256"
        }
      ],
      "name": "safeTransferFrom",
      "outputs": [],
      "stateMutability": "nonpayable",
      "type": "function"
    },
    {
      "inputs": [
        {
          "internalType": "address",
          "name": "from",
          "type": "address"
        },
        {
          "internalType": "address",
          "name": "to",
          "type": "address"
        },
        {
          "internalType": "uint256",
          "name": "tokenId",
          "type": "uint256"
        },
        {
          "internalType": "bytes",
          "name": "data",
          "type": "bytes"
        }
      ],
      "name": "safeTransferFrom",
      "outputs": [],
      "stateMutability": "nonpayable",
      "type": "function"
    },
    {
      "inputs": [
        {
          "internalType": "address",
          "name": "operator",
          "type": "address"
        },
        {
          "internalType": "bool",
          "name": "approved",
          "type": "bool"
        }
      ],
      "name": "setApprovalForAll",
      "outputs": [],
      "stateMutability": "nonpayable",
      "type": "function"
    },
    {
      "inputs": [
        {
          "internalType": "bytes4",
          "name": "interfaceId",
          "type": "bytes4"
        }
      ],
      "name": "supportsInterface",
      "outputs": [
        {
          "internalType": "bool",
          "name": "",
          "type": "bool"
        }
      ],
      "stateMutability": "view",
      "type": "function"
    },
    {
      "inputs": [],
      "name": "symbol",
      "outputs": [
        {
          "internalType": "string",
          "name": "",
          "type": "string"
        }
      ],
      "stateMutability": "view",
      "type": "function"
    },
    {
      "inputs": [
        {
          "internalType": "uint256",
          "name": "tokenId",
          "type": "uint256"
        }
      ],
      "name": "tokenURI",
      "outputs": [
        {
          "internalType": "string",
          "name": "",
          "type": "string"
        }
      ],
      "stateMutability": "view",
      "type": "function"
    },
    {
      "inputs": [
        {
          "internalType": "address",
          "name": "from",
          "type": "address"
        },
        {
          "internalType": "address",
          "name": "to",
          "type": "address"
        },
        {
          "internalType": "uint256",
          "name": "tokenId",
          "type": "uint256"
        }
      ],
      "name": "transferFrom",
      "outputs": [],
      "stateMutability": "nonpayable",
      "type": "function"
    }
  ],
  "bytecode": "0x60806040523480156200001157600080fd5b506040518060400160405280600d81526020017f426163616c686175204e465473000000000000000000000000000000000000008152506040518060400160405280600381526020017f424143000000000000000000000000000000000000000000000000000000000081525081600090816200008f91906200041f565b508060019081620000a191906200041f565b505050620000d36040518060600160405280603a815260200162003fa4603a9139620000d960201b620013331760201c565b620005b9565b6200017981604051602401620000f0919062000595565b6040516020818303038152906040527f41304fac000000000000000000000000000000000000000000000000000000007bffffffffffffffffffffffffffffffffffffffffffffffffffffffff19166020820180517bffffffffffffffffffffffffffffffffffffffffffffffffffffffff83818316178352505050506200017c60201b60201c565b50565b60008151905060006a636f6e736f6c652e6c6f679050602083016000808483855afa5050505050565b600081519050919050565b7f4e487b7100000000000000000000000000000000000000000000000000000000600052604160045260246000fd5b7f4e487b7100000000000000000000000000000000000000000000000000000000600052602260045260246000fd5b600060028204905060018216806200022757607f821691505b6020821081036200023d576200023c620001df565b5b50919050565b60008190508160005260206000209050919050565b60006020601f8301049050919050565b600082821b905092915050565b600060088302620002a77fffffffffffffffffffffffffffffffffffffffffffffffffffffffffffffffff8262000268565b620002b3868362000268565b95508019841693508086168417925050509392505050565b6000819050919050565b6000819050919050565b600062000300620002fa620002f484620002cb565b620002d5565b620002cb565b9050919050565b6000819050919050565b6200031c83620002df565b620003346200032b8262000307565b84845462000275565b825550505050565b600090565b6200034b6200033c565b6200035881848462000311565b505050565b5b8181101562000380576200037460008262000341565b6001810190506200035e565b5050565b601f821115620003cf57620003998162000243565b620003a48462000258565b81016020851015620003b4578190505b620003cc620003c38562000258565b8301826200035d565b50505b505050565b600082821c905092915050565b6000620003f460001984600802620003d4565b1980831691505092915050565b60006200040f8383620003e1565b9150826002028217905092915050565b6200042a82620001a5565b67ffffffffffffffff811115620004465762000445620001b0565b5b6200045282546200020e565b6200045f82828562000384565b600060209050601f83116001811462000497576000841562000482578287015190505b6200048e858262000401565b865550620004fe565b601f198416620004a78662000243565b60005b82811015620004d157848901518255600182019150602085019450602081019050620004aa565b86831015620004f15784890151620004ed601f891682620003e1565b8355505b6001600288020188555050505b505050505050565b600082825260208201905092915050565b60005b83811015620005375780820151818401526020810190506200051a565b60008484015250505050565b6000601f19601f8301169050919050565b60006200056182620001a5565b6200056d818562000506565b93506200057f81856020860162000517565b6200058a8162000543565b840191505092915050565b60006020820190508181036000830152620005b1818462000554565b905092915050565b6139db80620005c96000396000f3fe608060405234801561001057600080fd5b50600436106101215760003560e01c806370a08231116100ad578063b88d4fde11610071578063b88d4fde14610354578063c87b56dd14610370578063d2446af5146103a0578063e985e9c5146103d2578063fedea0231461040257610121565b806370a08231146102885780637c711b27146102b857806388f47684146102ea57806395d89b411461031a578063a22cb4651461033857610121565b806323b872dd116100f457806323b872dd146101c0578063275cf298146101dc57806342842e0e1461020c57806353324518146102285780636352211e1461025857610121565b806301ffc9a71461012657806306fdde0314610156578063081812fc14610174578063095ea7b3146101a4575b600080fd5b610140600480360381019061013b91906123cf565b610420565b60405161014d9190612417565b60405180910390f35b61015e610502565b60405161016b91906124c2565b60405180910390f35b61018e6004803603810190610189919061251a565b610594565b60405161019b9190612588565b60405180910390f35b6101be60048036038101906101b991906125cf565b6105da565b005b6101da60048036038101906101d5919061260f565b6106f1565b005b6101f660048036038101906101f19190612662565b610751565b6040516102039190612809565b60405180910390f35b6102266004803603810190610221919061260f565b6108e1565b005b610242600480360381019061023d9190612a46565b610901565b60405161024f9190612b51565b60405180910390f35b610272600480360381019061026d919061251a565b610a01565b60405161027f9190612588565b60405180910390f35b6102a2600480360381019061029d9190612662565b610a87565b6040516102af9190612b82565b60405180910390f35b6102d260048036038101906102cd919061251a565b610b3e565b6040516102e193929190612b9d565b60405180910390f35b61030460048036038101906102ff9190612bdb565b610c20565b6040516103119190612b82565b60405180910390f35b610322610e43565b60405161032f91906124c2565b60405180910390f35b610352600480360381019061034d9190612c63565b610ed5565b005b61036e60048036038101906103699190612d44565b610eeb565b005b61038a6004803603810190610385919061251a565b610f4d565b60405161039791906124c2565b60405180910390f35b6103ba60048036038101906103b591906125cf565b61105f565b6040516103c993929190612b9d565b60405180910390f35b6103ec60048036038101906103e79190612dc7565b61114e565b6040516103f99190612417565b60405180910390f35b61040a6111e2565b6040516104179190612809565b60405180910390f35b60007f80ac58cd000000000000000000000000000000000000000000000000000000007bffffffffffffffffffffffffffffffffffffffffffffffffffffffff1916827bffffffffffffffffffffffffffffffffffffffffffffffffffffffff191614806104eb57507f5b5e139f000000000000000000000000000000000000000000000000000000007bffffffffffffffffffffffffffffffffffffffffffffffffffffffff1916827bffffffffffffffffffffffffffffffffffffffffffffffffffffffff1916145b806104fb57506104fa826113cc565b5b9050919050565b60606000805461051190612e36565b80601f016020809104026020016040519081016040528092919081815260200182805461053d90612e36565b801561058a5780601f1061055f5761010080835404028352916020019161058a565b820191906000526020600020905b81548152906001019060200180831161056d57829003601f168201915b5050505050905090565b600061059f82611436565b6004600083815260200190815260200160002060009054906101000a900473ffffffffffffffffffffffffffffffffffffffff169050919050565b60006105e582610a01565b90508073ffffffffffffffffffffffffffffffffffffffff168373ffffffffffffffffffffffffffffffffffffffff1603610655576040517f08c379a000000000000000000000000000000000000000000000000000000000815260040161064c90612ed9565b60405180910390fd5b8073ffffffffffffffffffffffffffffffffffffffff16610674611481565b73ffffffffffffffffffffffffffffffffffffffff1614806106a357506106a28161069d611481565b61114e565b5b6106e2576040517f08c379a00000000000000000000000000000000000000000000000000000000081526004016106d990612f6b565b60405180910390fd5b6106ec8383611489565b505050565b6107026106fc611481565b82611542565b610741576040517f08c379a000000000000000000000000000000000000000000000000000000000815260040161073890612ffd565b60405180910390fd5b61074c8383836115d7565b505050565b6060600960008373ffffffffffffffffffffffffffffffffffffffff1673ffffffffffffffffffffffffffffffffffffffff168152602001908152602001600020805480602002602001604051908101604052809291908181526020016000905b828210156108d657838290600052602060002090600302016040518060600160405290816000820160009054906101000a900473ffffffffffffffffffffffffffffffffffffffff1673ffffffffffffffffffffffffffffffffffffffff1673ffffffffffffffffffffffffffffffffffffffff16815260200160018201805461083b90612e36565b80601f016020809104026020016040519081016040528092919081815260200182805461086790612e36565b80156108b45780601f10610889576101008083540402835291602001916108b4565b820191906000526020600020905b81548152906001019060200180831161089757829003601f168201915b50505050508152602001600282015481525050815260200190600101906107b2565b505050509050919050565b6108fc83838360405180602001604052806000815250610eeb565b505050565b60606109416040518060400160405280601581526020017f6d696e74696e6720626163616c686175206e6674730000000000000000000000815250611333565b60008251905060008167ffffffffffffffff81111561096357610962612830565b5b6040519080825280602002602001820160405280156109915781602001602082028036833780820191505090505b50905060005b828110156109f5576109c3868683815181106109b6576109b561301d565b5b6020026020010151610c20565b8282815181106109d6576109d561301d565b5b60200260200101818152505080806109ed9061307b565b915050610997565b81935050505092915050565b600080610a0d836118d0565b9050600073ffffffffffffffffffffffffffffffffffffffff168173ffffffffffffffffffffffffffffffffffffffff1603610a7e576040517f08c379a0000000000000000000000000000000000000000000000000000000008152600401610a759061310f565b60405180910390fd5b80915050919050565b60008073ffffffffffffffffffffffffffffffffffffffff168273ffffffffffffffffffffffffffffffffffffffff1603610af7576040517f08c379a0000000000000000000000000000000000000000000000000000000008152600401610aee906131a1565b60405180910390fd5b600360008373ffffffffffffffffffffffffffffffffffffffff1673ffffffffffffffffffffffffffffffffffffffff168152602001908152602001600020549050919050565b60088181548110610b4e57600080fd5b90600052602060002090600302016000915090508060000160009054906101000a900473ffffffffffffffffffffffffffffffffffffffff1690806001018054610b9790612e36565b80601f0160208091040260200160405190810160405280929190818152602001828054610bc390612e36565b8015610c105780601f10610be557610100808354040283529160200191610c10565b820191906000526020600020905b815481529060010190602001808311610bf357829003601f168201915b5050505050908060020154905083565b600080610c2d600761190d565b9050600060405180606001604052803373ffffffffffffffffffffffffffffffffffffffff168152602001858152602001838152509050610c6e858361191b565b610c788285611b38565b600960008673ffffffffffffffffffffffffffffffffffffffff1673ffffffffffffffffffffffffffffffffffffffff16815260200190815260200160002081908060018154018082558091505060019003906000526020600020906003020160009091909190915060008201518160000160006101000a81548173ffffffffffffffffffffffffffffffffffffffff021916908373ffffffffffffffffffffffffffffffffffffffff1602179055506020820151816001019081610d3d919061336d565b50604082015181600201555050610d546007611ba5565b600881908060018154018082558091505060019003906000526020600020906003020160009091909190915060008201518160000160006101000a81548173ffffffffffffffffffffffffffffffffffffffff021916908373ffffffffffffffffffffffffffffffffffffffff1602179055506020820151816001019081610ddc919061336d565b50604082015181600201555050813373ffffffffffffffffffffffffffffffffffffffff167fa0d7dd882df80b5caa8a12b3b42a23b256354d5b96555ef5531f772cd34d762886604051610e3091906124c2565b60405180910390a3819250505092915050565b606060018054610e5290612e36565b80601f0160208091040260200160405190810160405280929190818152602001828054610e7e90612e36565b8015610ecb5780601f10610ea057610100808354040283529160200191610ecb565b820191906000526020600020905b815481529060010190602001808311610eae57829003601f168201915b5050505050905090565b610ee7610ee0611481565b8383611bbb565b5050565b610efc610ef6611481565b83611542565b610f3b576040517f08c379a0000000000000000000000000000000000000000000000000000000008152600401610f3290612ffd565b60405180910390fd5b610f4784848484611d27565b50505050565b6060610f5882611436565b6000600660008481526020019081526020016000208054610f7890612e36565b80601f0160208091040260200160405190810160405280929190818152602001828054610fa490612e36565b8015610ff15780601f10610fc657610100808354040283529160200191610ff1565b820191906000526020600020905b815481529060010190602001808311610fd457829003601f168201915b505050505090506000611002611d83565b9050600081510361101757819250505061105a565b60008251111561104c57808260405160200161103492919061347b565b6040516020818303038152906040529250505061105a565b61105584611d9a565b925050505b919050565b6009602052816000526040600020818154811061107b57600080fd5b9060005260206000209060030201600091509150508060000160009054906101000a900473ffffffffffffffffffffffffffffffffffffffff16908060010180546110c590612e36565b80601f01602080910402602001604051908101604052809291908181526020018280546110f190612e36565b801561113e5780601f106111135761010080835404028352916020019161113e565b820191906000526020600020905b81548152906001019060200180831161112157829003601f168201915b5050505050908060020154905083565b6000600560008473ffffffffffffffffffffffffffffffffffffffff1673ffffffffffffffffffffffffffffffffffffffff16815260200190815260200160002060008373ffffffffffffffffffffffffffffffffffffffff1673ffffffffffffffffffffffffffffffffffffffff16815260200190815260200160002060009054906101000a900460ff16905092915050565b60606008805480602002602001604051908101604052809291908181526020016000905b8282101561132a57838290600052602060002090600302016040518060600160405290816000820160009054906101000a900473ffffffffffffffffffffffffffffffffffffffff1673ffffffffffffffffffffffffffffffffffffffff1673ffffffffffffffffffffffffffffffffffffffff16815260200160018201805461128f90612e36565b80601f01602080910402602001604051908101604052809291908181526020018280546112bb90612e36565b80156113085780601f106112dd57610100808354040283529160200191611308565b820191906000526020600020905b8154815290600101906020018083116112eb57829003601f168201915b5050505050815260200160028201548152505081526020019060010190611206565b50505050905090565b6113c98160405160240161134791906124c2565b6040516020818303038152906040527f41304fac000000000000000000000000000000000000000000000000000000007bffffffffffffffffffffffffffffffffffffffffffffffffffffffff19166020820180517bffffffffffffffffffffffffffffffffffffffffffffffffffffffff8381831617835250505050611e02565b50565b60007f01ffc9a7000000000000000000000000000000000000000000000000000000007bffffffffffffffffffffffffffffffffffffffffffffffffffffffff1916827bffffffffffffffffffffffffffffffffffffffffffffffffffffffff1916149050919050565b61143f81611e2b565b61147e576040517f08c379a00000000000000000000000000000000000000000000000000000000081526004016114759061310f565b60405180910390fd5b50565b600033905090565b816004600083815260200190815260200160002060006101000a81548173ffffffffffffffffffffffffffffffffffffffff021916908373ffffffffffffffffffffffffffffffffffffffff160217905550808273ffffffffffffffffffffffffffffffffffffffff166114fc83610a01565b73ffffffffffffffffffffffffffffffffffffffff167f8c5be1e5ebec7d5bd14f71427d1e84f3dd0314c0f7b2291e5b200ac8c7c3b92560405160405180910390a45050565b60008061154e83610a01565b90508073ffffffffffffffffffffffffffffffffffffffff168473ffffffffffffffffffffffffffffffffffffffff161480611590575061158f818561114e565b5b806115ce57508373ffffffffffffffffffffffffffffffffffffffff166115b684610594565b73ffffffffffffffffffffffffffffffffffffffff16145b91505092915050565b8273ffffffffffffffffffffffffffffffffffffffff166115f782610a01565b73ffffffffffffffffffffffffffffffffffffffff161461164d576040517f08c379a000000000000000000000000000000000000000000000000000000000815260040161164490613511565b60405180910390fd5b600073ffffffffffffffffffffffffffffffffffffffff168273ffffffffffffffffffffffffffffffffffffffff16036116bc576040517f08c379a00000000000000000000000000000000000000000000000000000000081526004016116b3906135a3565b60405180910390fd5b6116c98383836001611e6c565b8273ffffffffffffffffffffffffffffffffffffffff166116e982610a01565b73ffffffffffffffffffffffffffffffffffffffff161461173f576040517f08c379a000000000000000000000000000000000000000000000000000000000815260040161173690613511565b60405180910390fd5b6004600082815260200190815260200160002060006101000a81549073ffffffffffffffffffffffffffffffffffffffff02191690556001600360008573ffffffffffffffffffffffffffffffffffffffff1673ffffffffffffffffffffffffffffffffffffffff168152602001908152602001600020600082825403925050819055506001600360008473ffffffffffffffffffffffffffffffffffffffff1673ffffffffffffffffffffffffffffffffffffffff16815260200190815260200160002060008282540192505081905550816002600083815260200190815260200160002060006101000a81548173ffffffffffffffffffffffffffffffffffffffff021916908373ffffffffffffffffffffffffffffffffffffffff160217905550808273ffffffffffffffffffffffffffffffffffffffff168473ffffffffffffffffffffffffffffffffffffffff167fddf252ad1be2c89b69c2b068fc378daa952ba7f163c4a11628f55a4df523b3ef60405160405180910390a46118cb8383836001611f92565b505050565b60006002600083815260200190815260200160002060009054906101000a900473ffffffffffffffffffffffffffffffffffffffff169050919050565b600081600001549050919050565b600073ffffffffffffffffffffffffffffffffffffffff168273ffffffffffffffffffffffffffffffffffffffff160361198a576040517f08c379a00000000000000000000000000000000000000000000000000000000081526004016119819061360f565b60405180910390fd5b61199381611e2b565b156119d3576040517f08c379a00000000000000000000000000000000000000000000000000000000081526004016119ca9061367b565b60405180910390fd5b6119e1600083836001611e6c565b6119ea81611e2b565b15611a2a576040517f08c379a0000000000000000000000000000000000000000000000000000000008152600401611a219061367b565b60405180910390fd5b6001600360008473ffffffffffffffffffffffffffffffffffffffff1673ffffffffffffffffffffffffffffffffffffffff16815260200190815260200160002060008282540192505081905550816002600083815260200190815260200160002060006101000a81548173ffffffffffffffffffffffffffffffffffffffff021916908373ffffffffffffffffffffffffffffffffffffffff160217905550808273ffffffffffffffffffffffffffffffffffffffff16600073ffffffffffffffffffffffffffffffffffffffff167fddf252ad1be2c89b69c2b068fc378daa952ba7f163c4a11628f55a4df523b3ef60405160405180910390a4611b34600083836001611f92565b5050565b611b4182611e2b565b611b80576040517f08c379a0000000000000000000000000000000000000000000000000000000008152600401611b779061370d565b60405180910390fd5b80600660008481526020019081526020016000209081611ba0919061336d565b505050565b6001816000016000828254019250508190555050565b8173ffffffffffffffffffffffffffffffffffffffff168373ffffffffffffffffffffffffffffffffffffffff1603611c29576040517f08c379a0000000000000000000000000000000000000000000000000000000008152600401611c2090613779565b60405180910390fd5b80600560008573ffffffffffffffffffffffffffffffffffffffff1673ffffffffffffffffffffffffffffffffffffffff16815260200190815260200160002060008473ffffffffffffffffffffffffffffffffffffffff1673ffffffffffffffffffffffffffffffffffffffff16815260200190815260200160002060006101000a81548160ff0219169083151502179055508173ffffffffffffffffffffffffffffffffffffffff168373ffffffffffffffffffffffffffffffffffffffff167f17307eab39ab6107e8899845ad3d59bd9653f200f220920489ca2b5937696c3183604051611d1a9190612417565b60405180910390a3505050565b611d328484846115d7565b611d3e84848484611f98565b611d7d576040517f08c379a0000000000000000000000000000000000000000000000000000000008152600401611d749061380b565b60405180910390fd5b50505050565b606060405180602001604052806000815250905090565b6060611da582611436565b6000611daf611d83565b90506000815111611dcf5760405180602001604052806000815250611dfa565b80611dd98461211f565b604051602001611dea92919061347b565b6040516020818303038152906040525b915050919050565b60008151905060006a636f6e736f6c652e6c6f679050602083016000808483855afa5050505050565b60008073ffffffffffffffffffffffffffffffffffffffff16611e4d836118d0565b73ffffffffffffffffffffffffffffffffffffffff1614159050919050565b6001811115611f8c57600073ffffffffffffffffffffffffffffffffffffffff168473ffffffffffffffffffffffffffffffffffffffff1614611f005780600360008673ffffffffffffffffffffffffffffffffffffffff1673ffffffffffffffffffffffffffffffffffffffff1681526020019081526020016000206000828254611ef8919061382b565b925050819055505b600073ffffffffffffffffffffffffffffffffffffffff168373ffffffffffffffffffffffffffffffffffffffff1614611f8b5780600360008573ffffffffffffffffffffffffffffffffffffffff1673ffffffffffffffffffffffffffffffffffffffff1681526020019081526020016000206000828254611f83919061385f565b925050819055505b5b50505050565b50505050565b6000611fb98473ffffffffffffffffffffffffffffffffffffffff166121ed565b15612112578373ffffffffffffffffffffffffffffffffffffffff1663150b7a02611fe2611481565b8786866040518563ffffffff1660e01b815260040161200494939291906138e8565b6020604051808303816000875af192505050801561204057506040513d601f19601f8201168201806040525081019061203d9190613949565b60015b6120c2573d8060008114612070576040519150601f19603f3d011682016040523d82523d6000602084013e612075565b606091505b5060008151036120ba576040517f08c379a00000000000000000000000000000000000000000000000000000000081526004016120b19061380b565b60405180910390fd5b805181602001fd5b63150b7a0260e01b7bffffffffffffffffffffffffffffffffffffffffffffffffffffffff1916817bffffffffffffffffffffffffffffffffffffffffffffffffffffffff191614915050612117565b600190505b949350505050565b60606000600161212e84612210565b01905060008167ffffffffffffffff81111561214d5761214c612830565b5b6040519080825280601f01601f19166020018201604052801561217f5781602001600182028036833780820191505090505b509050600082602001820190505b6001156121e2578080600190039150507f3031323334353637383961626364656600000000000000000000000000000000600a86061a8153600a85816121d6576121d5613976565b5b0494506000850361218d575b819350505050919050565b6000808273ffffffffffffffffffffffffffffffffffffffff163b119050919050565b600080600090507a184f03e93ff9f4daa797ed6e38ed64bf6a1f010000000000000000831061226e577a184f03e93ff9f4daa797ed6e38ed64bf6a1f010000000000000000838161226457612263613976565b5b0492506040810190505b6d04ee2d6d415b85acef810000000083106122ab576d04ee2d6d415b85acef810000000083816122a1576122a0613976565b5b0492506020810190505b662386f26fc1000083106122da57662386f26fc1000083816122d0576122cf613976565b5b0492506010810190505b6305f5e1008310612303576305f5e10083816122f9576122f8613976565b5b0492506008810190505b612710831061232857612710838161231e5761231d613976565b5b0492506004810190505b6064831061234b576064838161234157612340613976565b5b0492506002810190505b600a831061235a576001810190505b80915050919050565b6000604051905090565b600080fd5b600080fd5b60007fffffffff0000000000000000000000000000000000000000000000000000000082169050919050565b6123ac81612377565b81146123b757600080fd5b50565b6000813590506123c9816123a3565b92915050565b6000602082840312156123e5576123e461236d565b5b60006123f3848285016123ba565b91505092915050565b60008115159050919050565b612411816123fc565b82525050565b600060208201905061242c6000830184612408565b92915050565b600081519050919050565b600082825260208201905092915050565b60005b8381101561246c578082015181840152602081019050612451565b60008484015250505050565b6000601f19601f8301169050919050565b600061249482612432565b61249e818561243d565b93506124ae81856020860161244e565b6124b781612478565b840191505092915050565b600060208201905081810360008301526124dc8184612489565b905092915050565b6000819050919050565b6124f7816124e4565b811461250257600080fd5b50565b600081359050612514816124ee565b92915050565b6000602082840312156125305761252f61236d565b5b600061253e84828501612505565b91505092915050565b600073ffffffffffffffffffffffffffffffffffffffff82169050919050565b600061257282612547565b9050919050565b61258281612567565b82525050565b600060208201905061259d6000830184612579565b92915050565b6125ac81612567565b81146125b757600080fd5b50565b6000813590506125c9816125a3565b92915050565b600080604083850312156125e6576125e561236d565b5b60006125f4858286016125ba565b925050602061260585828601612505565b9150509250929050565b6000806000606084860312156126285761262761236d565b5b6000612636868287016125ba565b9350506020612647868287016125ba565b925050604061265886828701612505565b9150509250925092565b6000602082840312156126785761267761236d565b5b6000612686848285016125ba565b91505092915050565b600081519050919050565b600082825260208201905092915050565b6000819050602082019050919050565b6126c481612567565b82525050565b600082825260208201905092915050565b60006126e682612432565b6126f081856126ca565b935061270081856020860161244e565b61270981612478565b840191505092915050565b61271d816124e4565b82525050565b600060608301600083015161273b60008601826126bb565b506020830151848203602086015261275382826126db565b91505060408301516127686040860182612714565b508091505092915050565b600061277f8383612723565b905092915050565b6000602082019050919050565b600061279f8261268f565b6127a9818561269a565b9350836020820285016127bb856126ab565b8060005b858110156127f757848403895281516127d88582612773565b94506127e383612787565b925060208a019950506001810190506127bf565b50829750879550505050505092915050565b600060208201905081810360008301526128238184612794565b905092915050565b600080fd5b7f4e487b7100000000000000000000000000000000000000000000000000000000600052604160045260246000fd5b61286882612478565b810181811067ffffffffffffffff8211171561288757612886612830565b5b80604052505050565b600061289a612363565b90506128a6828261285f565b919050565b600067ffffffffffffffff8211156128c6576128c5612830565b5b602082029050602081019050919050565b600080fd5b600080fd5b600067ffffffffffffffff8211156128fc576128fb612830565b5b61290582612478565b9050602081019050919050565b82818337600083830152505050565b600061293461292f846128e1565b612890565b9050828152602081018484840111156129505761294f6128dc565b5b61295b848285612912565b509392505050565b600082601f8301126129785761297761282b565b5b8135612988848260208601612921565b91505092915050565b60006129a461299f846128ab565b612890565b905080838252602082019050602084028301858111156129c7576129c66128d7565b5b835b81811015612a0e57803567ffffffffffffffff8111156129ec576129eb61282b565b5b8086016129f98982612963565b855260208501945050506020810190506129c9565b5050509392505050565b600082601f830112612a2d57612a2c61282b565b5b8135612a3d848260208601612991565b91505092915050565b60008060408385031215612a5d57612a5c61236d565b5b6000612a6b858286016125ba565b925050602083013567ffffffffffffffff811115612a8c57612a8b612372565b5b612a9885828601612a18565b9150509250929050565b600081519050919050565b600082825260208201905092915050565b6000819050602082019050919050565b6000612ada8383612714565b60208301905092915050565b6000602082019050919050565b6000612afe82612aa2565b612b088185612aad565b9350612b1383612abe565b8060005b83811015612b44578151612b2b8882612ace565b9750612b3683612ae6565b925050600181019050612b17565b5085935050505092915050565b60006020820190508181036000830152612b6b8184612af3565b905092915050565b612b7c816124e4565b82525050565b6000602082019050612b976000830184612b73565b92915050565b6000606082019050612bb26000830186612579565b8181036020830152612bc48185612489565b9050612bd36040830184612b73565b949350505050565b60008060408385031215612bf257612bf161236d565b5b6000612c00858286016125ba565b925050602083013567ffffffffffffffff811115612c2157612c20612372565b5b612c2d85828601612963565b9150509250929050565b612c40816123fc565b8114612c4b57600080fd5b50565b600081359050612c5d81612c37565b92915050565b60008060408385031215612c7a57612c7961236d565b5b6000612c88858286016125ba565b9250506020612c9985828601612c4e565b9150509250929050565b600067ffffffffffffffff821115612cbe57612cbd612830565b5b612cc782612478565b9050602081019050919050565b6000612ce7612ce284612ca3565b612890565b905082815260208101848484011115612d0357612d026128dc565b5b612d0e848285612912565b509392505050565b600082601f830112612d2b57612d2a61282b565b5b8135612d3b848260208601612cd4565b91505092915050565b60008060008060808587031215612d5e57612d5d61236d565b5b6000612d6c878288016125ba565b9450506020612d7d878288016125ba565b9350506040612d8e87828801612505565b925050606085013567ffffffffffffffff811115612daf57612dae612372565b5b612dbb87828801612d16565b91505092959194509250565b60008060408385031215612dde57612ddd61236d565b5b6000612dec858286016125ba565b9250506020612dfd858286016125ba565b9150509250929050565b7f4e487b7100000000000000000000000000000000000000000000000000000000600052602260045260246000fd5b60006002820490506001821680612e4e57607f821691505b602082108103612e6157612e60612e07565b5b50919050565b7f4552433732313a20617070726f76616c20746f2063757272656e74206f776e6560008201527f7200000000000000000000000000000000000000000000000000000000000000602082015250565b6000612ec360218361243d565b9150612ece82612e67565b604082019050919050565b60006020820190508181036000830152612ef281612eb6565b9050919050565b7f4552433732313a20617070726f76652063616c6c6572206973206e6f7420746f60008201527f6b656e206f776e6572206f7220617070726f76656420666f7220616c6c000000602082015250565b6000612f55603d8361243d565b9150612f6082612ef9565b604082019050919050565b60006020820190508181036000830152612f8481612f48565b9050919050565b7f4552433732313a2063616c6c6572206973206e6f7420746f6b656e206f776e6560008201527f72206f7220617070726f76656400000000000000000000000000000000000000602082015250565b6000612fe7602d8361243d565b9150612ff282612f8b565b604082019050919050565b6000602082019050818103600083015261301681612fda565b9050919050565b7f4e487b7100000000000000000000000000000000000000000000000000000000600052603260045260246000fd5b7f4e487b7100000000000000000000000000000000000000000000000000000000600052601160045260246000fd5b6000613086826124e4565b91507fffffffffffffffffffffffffffffffffffffffffffffffffffffffffffffffff82036130b8576130b761304c565b5b600182019050919050565b7f4552433732313a20696e76616c696420746f6b656e2049440000000000000000600082015250565b60006130f960188361243d565b9150613104826130c3565b602082019050919050565b60006020820190508181036000830152613128816130ec565b9050919050565b7f4552433732313a2061646472657373207a65726f206973206e6f74206120766160008201527f6c6964206f776e65720000000000000000000000000000000000000000000000602082015250565b600061318b60298361243d565b91506131968261312f565b604082019050919050565b600060208201905081810360008301526131ba8161317e565b9050919050565b60008190508160005260206000209050919050565b60006020601f8301049050919050565b600082821b905092915050565b6000600883026132237fffffffffffffffffffffffffffffffffffffffffffffffffffffffffffffffff826131e6565b61322d86836131e6565b95508019841693508086168417925050509392505050565b6000819050919050565b600061326a613265613260846124e4565b613245565b6124e4565b9050919050565b6000819050919050565b6132848361324f565b61329861329082613271565b8484546131f3565b825550505050565b600090565b6132ad6132a0565b6132b881848461327b565b505050565b5b818110156132dc576132d16000826132a5565b6001810190506132be565b5050565b601f821115613321576132f2816131c1565b6132fb846131d6565b8101602085101561330a578190505b61331e613316856131d6565b8301826132bd565b50505b505050565b600082821c905092915050565b600061334460001984600802613326565b1980831691505092915050565b600061335d8383613333565b9150826002028217905092915050565b61337682612432565b67ffffffffffffffff81111561338f5761338e612830565b5b6133998254612e36565b6133a48282856132e0565b600060209050601f8311600181146133d757600084156133c5578287015190505b6133cf8582613351565b865550613437565b601f1984166133e5866131c1565b60005b8281101561340d578489015182556001820191506020850194506020810190506133e8565b8683101561342a5784890151613426601f891682613333565b8355505b6001600288020188555050505b505050505050565b600081905092915050565b600061345582612432565b61345f818561343f565b935061346f81856020860161244e565b80840191505092915050565b6000613487828561344a565b9150613493828461344a565b91508190509392505050565b7f4552433732313a207472616e736665722066726f6d20696e636f72726563742060008201527f6f776e6572000000000000000000000000000000000000000000000000000000602082015250565b60006134fb60258361243d565b91506135068261349f565b604082019050919050565b6000602082019050818103600083015261352a816134ee565b9050919050565b7f4552433732313a207472616e7366657220746f20746865207a65726f2061646460008201527f7265737300000000000000000000000000000000000000000000000000000000602082015250565b600061358d60248361243d565b915061359882613531565b604082019050919050565b600060208201905081810360008301526135bc81613580565b9050919050565b7f4552433732313a206d696e7420746f20746865207a65726f2061646472657373600082015250565b60006135f960208361243d565b9150613604826135c3565b602082019050919050565b60006020820190508181036000830152613628816135ec565b9050919050565b7f4552433732313a20746f6b656e20616c7265616479206d696e74656400000000600082015250565b6000613665601c8361243d565b91506136708261362f565b602082019050919050565b6000602082019050818103600083015261369481613658565b9050919050565b7f45524337323155524953746f726167653a2055524920736574206f66206e6f6e60008201527f6578697374656e7420746f6b656e000000000000000000000000000000000000602082015250565b60006136f7602e8361243d565b91506137028261369b565b604082019050919050565b60006020820190508181036000830152613726816136ea565b9050919050565b7f4552433732313a20617070726f766520746f2063616c6c657200000000000000600082015250565b600061376360198361243d565b915061376e8261372d565b602082019050919050565b6000602082019050818103600083015261379281613756565b9050919050565b7f4552433732313a207472616e7366657220746f206e6f6e20455243373231526560008201527f63656976657220696d706c656d656e7465720000000000000000000000000000602082015250565b60006137f560328361243d565b915061380082613799565b604082019050919050565b60006020820190508181036000830152613824816137e8565b9050919050565b6000613836826124e4565b9150613841836124e4565b92508282039050818111156138595761385861304c565b5b92915050565b600061386a826124e4565b9150613875836124e4565b925082820190508082111561388d5761388c61304c565b5b92915050565b600081519050919050565b600082825260208201905092915050565b60006138ba82613893565b6138c4818561389e565b93506138d481856020860161244e565b6138dd81612478565b840191505092915050565b60006080820190506138fd6000830187612579565b61390a6020830186612579565b6139176040830185612b73565b818103606083015261392981846138af565b905095945050505050565b600081519050613943816123a3565b92915050565b60006020828403121561395f5761395e61236d565b5b600061396d84828501613934565b91505092915050565b7f4e487b7100000000000000000000000000000000000000000000000000000000600052601260045260246000fdfea2646970667358221220019eadb2ac1b98af723b19cd62dcc419b8b6c57ef6d3deadd985619daf577c3a64736f6c6343000811003348656c6c6f2046696c2d6465727321204e6f77206372656174696e6720426163616c68617520465243373231204e465420636f6e747261637421",
  "linkReferences": {},
  "deployedLinkReferences": {}
}