{
  "_format": "hh-sol-artifact-1",
  "contractName": "Greeter",
  "sourceName": "contracts/Greeter.sol",
  "abi": [
    {
      "inputs": [
        {
          "internalType": "string",
          "name": "_greeting",
          "type": "string"
        }
      ],
      "stateMutability": "nonpayable",
      "type": "constructor"
    },
    {
      "inputs": [],
      "name": "GreeterError",
      "type": "error"
    },
    {
      "inputs": [],
      "name": "greet",
      "outputs": [
        {
          "internalType": "string",
          "name": "",
          "type": "string"
        }
      ],
      "stateMutability": "view",
      "type": "function"
    },
    {
      "inputs": [],
      "name": "greeting",
      "outputs": [
        {
          "internalType": "string",
          "name": "",
          "type": "string"
        }
      ],
      "stateMutability": "view",
      "type": "function"
    },
    {
      "inputs": [
        {
          "internalType": "string",
          "name": "_greeting",
          "type": "string"
        }
      ],
      "name": "setGreeting",
      "outputs": [],
      "stateMutability": "nonpayable",
      "type": "function"
    },
    {
      "inputs": [],
      "name": "throwError",
      "outputs": [],
      "stateMutability": "pure",
      "type": "function"
    }
  ],
  "bytecode": "0x60806040523480156200001157600080fd5b5060405162001155380380620011558339818101604052810190620000379190620002e2565b620000676040518060600160405280602281526020016200113360229139826200008060201b620002c51760201c565b80600090816200007891906200057e565b5050620006f2565b62000122828260405160240162000099929190620006b7565b6040516020818303038152906040527f4b5c4277000000000000000000000000000000000000000000000000000000007bffffffffffffffffffffffffffffffffffffffffffffffffffffffff19166020820180517bffffffffffffffffffffffffffffffffffffffffffffffffffffffff83818316178352505050506200012660201b60201c565b5050565b60008151905060006a636f6e736f6c652e6c6f679050602083016000808483855afa5050505050565b6000604051905090565b600080fd5b600080fd5b600080fd5b600080fd5b6000601f19601f8301169050919050565b7f4e487b7100000000000000000000000000000000000000000000000000000000600052604160045260246000fd5b620001b8826200016d565b810181811067ffffffffffffffff82111715620001da57620001d96200017e565b5b80604052505050565b6000620001ef6200014f565b9050620001fd8282620001ad565b919050565b600067ffffffffffffffff82111562000220576200021f6200017e565b5b6200022b826200016d565b9050602081019050919050565b60005b83811015620002585780820151818401526020810190506200023b565b60008484015250505050565b60006200027b620002758462000202565b620001e3565b9050828152602081018484840111156200029a576200029962000168565b5b620002a784828562000238565b509392505050565b600082601f830112620002c757620002c662000163565b5b8151620002d984826020860162000264565b91505092915050565b600060208284031215620002fb57620002fa62000159565b5b600082015167ffffffffffffffff8111156200031c576200031b6200015e565b5b6200032a84828501620002af565b91505092915050565b600081519050919050565b7f4e487b7100000000000000000000000000000000000000000000000000000000600052602260045260246000fd5b600060028204905060018216806200038657607f821691505b6020821081036200039c576200039b6200033e565b5b50919050565b60008190508160005260206000209050919050565b60006020601f8301049050919050565b600082821b905092915050565b600060088302620004067fffffffffffffffffffffffffffffffffffffffffffffffffffffffffffffffff82620003c7565b620004128683620003c7565b95508019841693508086168417925050509392505050565b6000819050919050565b6000819050919050565b60006200045f6200045962000453846200042a565b62000434565b6200042a565b9050919050565b6000819050919050565b6200047b836200043e565b620004936200048a8262000466565b848454620003d4565b825550505050565b600090565b620004aa6200049b565b620004b781848462000470565b505050565b5b81811015620004df57620004d3600082620004a0565b600181019050620004bd565b5050565b601f8211156200052e57620004f881620003a2565b6200050384620003b7565b8101602085101562000513578190505b6200052b6200052285620003b7565b830182620004bc565b50505b505050565b600082821c905092915050565b6000620005536000198460080262000533565b1980831691505092915050565b60006200056e838362000540565b9150826002028217905092915050565b620005898262000333565b67ffffffffffffffff811115620005a557620005a46200017e565b5b620005b182546200036d565b620005be828285620004e3565b600060209050601f831160018114620005f65760008415620005e1578287015190505b620005ed858262000560565b8655506200065d565b601f1984166200060686620003a2565b60005b82811015620006305784890151825560018201915060208501945060208101905062000609565b868310156200065057848901516200064c601f89168262000540565b8355505b6001600288020188555050505b505050505050565b600082825260208201905092915050565b6000620006838262000333565b6200068f818562000665565b9350620006a181856020860162000238565b620006ac816200016d565b840191505092915050565b60006040820190508181036000830152620006d3818562000676565b90508181036020830152620006e9818462000676565b90509392505050565b610a3180620007026000396000f3fe608060405234801561001057600080fd5b506004361061004c5760003560e01c80632f7643a814610051578063a41368621461005b578063cfae321714610077578063ef690cc014610095575b600080fd5b6100596100b3565b005b61007560048036038101906100709190610583565b6100e5565b005b61007f6101a5565b60405161008c919061064b565b60405180910390f35b61009d610237565b6040516100aa919061064b565b60405180910390f35b6040517fc8508fc300000000000000000000000000000000000000000000000000000000815260040160405180910390fd5b6101926040518060600160405280602381526020016109d9602391396000805461010e9061069c565b80601f016020809104026020016040519081016040528092919081815260200182805461013a9061069c565b80156101875780601f1061015c57610100808354040283529160200191610187565b820191906000526020600020905b81548152906001019060200180831161016a57829003601f168201915b505050505083610361565b80600090816101a19190610883565b5050565b6060600080546101b49061069c565b80601f01602080910402602001604051908101604052809291908181526020018280546101e09061069c565b801561022d5780601f106102025761010080835404028352916020019161022d565b820191906000526020600020905b81548152906001019060200180831161021057829003601f168201915b5050505050905090565b600080546102449061069c565b80601f01602080910402602001604051908101604052809291908181526020018280546102709061069c565b80156102bd5780601f10610292576101008083540402835291602001916102bd565b820191906000526020600020905b8154815290600101906020018083116102a057829003601f168201915b505050505081565b61035d82826040516024016102db929190610955565b6040516020818303038152906040527f4b5c4277000000000000000000000000000000000000000000000000000000007bffffffffffffffffffffffffffffffffffffffffffffffffffffffff19166020820180517bffffffffffffffffffffffffffffffffffffffffffffffffffffffff8381831617835250505050610400565b5050565b6103fb8383836040516024016103799392919061098c565b6040516020818303038152906040527f2ced7cef000000000000000000000000000000000000000000000000000000007bffffffffffffffffffffffffffffffffffffffffffffffffffffffff19166020820180517bffffffffffffffffffffffffffffffffffffffffffffffffffffffff8381831617835250505050610400565b505050565b60008151905060006a636f6e736f6c652e6c6f679050602083016000808483855afa5050505050565b6000604051905090565b600080fd5b600080fd5b600080fd5b600080fd5b6000601f19601f8301169050919050565b7f4e487b7100000000000000000000000000000000000000000000000000000000600052604160045260246000fd5b61049082610447565b810181811067ffffffffffffffff821117156104af576104ae610458565b5b80604052505050565b60006104c2610429565b90506104ce8282610487565b919050565b600067ffffffffffffffff8211156104ee576104ed610458565b5b6104f782610447565b9050602081019050919050565b82818337600083830152505050565b6000610526610521846104d3565b6104b8565b90508281526020810184848401111561054257610541610442565b5b61054d848285610504565b509392505050565b600082601f83011261056a5761056961043d565b5b813561057a848260208601610513565b91505092915050565b60006020828403121561059957610598610433565b5b600082013567ffffffffffffffff8111156105b7576105b6610438565b5b6105c384828501610555565b91505092915050565b600081519050919050565b600082825260208201905092915050565b60005b838110156106065780820151818401526020810190506105eb565b60008484015250505050565b600061061d826105cc565b61062781856105d7565b93506106378185602086016105e8565b61064081610447565b840191505092915050565b600060208201905081810360008301526106658184610612565b905092915050565b7f4e487b7100000000000000000000000000000000000000000000000000000000600052602260045260246000fd5b600060028204905060018216806106b457607f821691505b6020821081036106c7576106c661066d565b5b50919050565b60008190508160005260206000209050919050565b60006020601f8301049050919050565b600082821b905092915050565b60006008830261072f7fffffffffffffffffffffffffffffffffffffffffffffffffffffffffffffffff826106f2565b61073986836106f2565b95508019841693508086168417925050509392505050565b6000819050919050565b6000819050919050565b600061078061077b61077684610751565b61075b565b610751565b9050919050565b6000819050919050565b61079a83610765565b6107ae6107a682610787565b8484546106ff565b825550505050565b600090565b6107c36107b6565b6107ce818484610791565b505050565b5b818110156107f2576107e76000826107bb565b6001810190506107d4565b5050565b601f82111561083757610808816106cd565b610811846106e2565b81016020851015610820578190505b61083461082c856106e2565b8301826107d3565b50505b505050565b600082821c905092915050565b600061085a6000198460080261083c565b1980831691505092915050565b60006108738383610849565b9150826002028217905092915050565b61088c826105cc565b67ffffffffffffffff8111156108a5576108a4610458565b5b6108af825461069c565b6108ba8282856107f6565b600060209050601f8311600181146108ed57600084156108db578287015190505b6108e58582610867565b86555061094d565b601f1984166108fb866106cd565b60005b82811015610923578489015182556001820191506020850194506020810190506108fe565b86831015610940578489015161093c601f891682610849565b8355505b6001600288020188555050505b505050505050565b6000604082019050818103600083015261096f8185610612565b905081810360208301526109838184610612565b90509392505050565b600060608201905081810360008301526109a68186610612565b905081810360208301526109ba8185610612565b905081810360408301526109ce8184610612565b905094935050505056fe4368616e67696e67206772656574696e672066726f6d202725732720746f2027257327a26469706673582212200f7c9f85a726c43dec5ec8b40ffa4d152d765e7b13347f40ab4f81ab61fabf7964736f6c634300081100334465706c6f79696e67206120477265657465722077697468206772656574696e673a",
  "linkReferences": {},
  "deployedLinkReferences": {}
}